:100000000C9434000C9449000C9449000C94490061
:100010000C9449000C9449000C9449000C9449003C
:100020000C9449000C9449000C9449000C9449002C
:100030000C9449000C9449000C9449000C9449001C
:100040000C9449000C9449000C9449000C9449000C
:100050000C9449000C9449000C9449000C944900FC
:100060000C9449000C94490011241FBECFEFD8E036
:10007000DEBFCDBF11E0A0E0B1E0ECE6F2E002C0EF
:1000800005900D92AA30B107D9F70E945C000C943C
:1000900034010C94000088E08093C10086E08093D6
:1000A000C20087E68093C40008959091C00095FF38
:1000B000FCCF8093C6000895CF93DF93CDB7DEB712
:1000C00060970FB6F894DEBF0FBECDBF8AE0E0E0C8
:1000D000F1E0DE01119601900D928A95E1F70E9400
:1000E0004B008FE087B980EF8AB98FEF84B910E0B9
:1000F00000E09AE0C92ED12C24E6A22EB12C38EED5
:10010000832E33E0932E0F5F1F4F003187E21807D5
:1001100010F010E000E0C801B6010E942001F82EA6
:10012000292ECB01B6010E942001E82E9F87C8012D
:10013000B5010E942001CB01B6010E942001582E7A
:10014000988BC801B4010E942001462E372E82E30D
:10015000682E712C90E3960F9B8780E3850D8C872A
:1001600090E39E0D9D8780E38F0D8E87E42DF32D08
:1001700081E090E08C0F9D1FE80FF91F808188B906
:1001800080818BB98B850E9455009FEE95B98FE1D8
:100190009EE40197F1F700C00000E52DF88981E0A9
:1001A00090E08C0F9D1FE80FF91F808188B9808136
:1001B0008BB98C850E94550097EF95B98FE19EE42D
:1001C0000197F1F700C00000EE2DFF8581E090E07F
:1001D0008C0F9D1FE80FF91F808188B980818BB932
:1001E0008D850E9455009BEF95B98FE19EE40197A4
:1001F000F1F700C00000EF2DF22D81E090E08C0FB0
:100200009D1FE80FF91F808188B980818BB98E8589
:100210000E9455009DEF95B98FE19EE40197F1F79B
:1002200000C000009FEF95B98DE00E9455008AE064
:100230000E94550081E0681A710809F097CF63CFDA
:10024000AA1BBB1B51E107C0AA1FBB1FA617B707FC
:1002500010F0A61BB70B881F991F5A95A9F7809518
:0C0260009095BC01CD010895F894FFCFEB
:0A026C003F065B4F666D7D077F675C
:00000001FF
