:100000000C9434000C943E000C943E000C943E0082
:100010000C943E000C943E000C943E000C943E0068
:100020000C943E000C943E000C943E000C943E0058
:100030000C943E000C943E000C943E000C943E0048
:100040000C943E000C943E000C943E000C943E0038
:100050000C943E000C943E000C943E000C943E0028
:100060000C943E000C943E0011241FBECFEFD8E04C
:10007000DEBFCDBF0E9440000C946D000C940000C8
:1000800080EC8AB988E38BB920EC30E449B199B1AE
:10009000907189B1807243FD11C09923D9F08823F2
:1000A000C9F08BB183278BB94FEF81EE94E04150BB
:1000B00080409040E1F700C00000E8CF911105C0FA
:1000C000882341F08BB18058EECF811103C08BB1F2
:0E00D0008227E9CF8BB18F73E6CFF894FFCF74
:00000001FF
