:100000000C9434000C9449000C9449000C94490061
:100010000C9449000C9449000C9449000C9449003C
:100020000C9449000C9449000C9449000C9449002C
:100030000C9449000C9449000C9449000C9449001C
:100040000C9449000C9449000C9449000C9449000C
:100050000C9449000C9449000C9449000C944900FC
:100060000C9449000C94490011241FBECFEFD8E036
:10007000DEBFCDBF11E0A0E0B1E0E4E3F1E002C0FB
:1000800005900D92A633B107D9F70E9479000C9420
:1000900098000C94000088E08093C10086E0809373
:1000A000C20087E68093C40008959091C00095FF38
:1000B000FCCF8093C60008951F93CF93DF93EC018C
:1000C00010E0812F90E0FE0101900020E9F73197C8
:1000D000EC1BFD0B8E179F0720F0DF91CF911F9136
:1000E00008958C0F9D1FFC0180810E9455001F5FA9
:1000F000E8CF80EC8AB988E18BB90E944B004B991C
:1001000013C05E9A80E091E00E945C008DE00E9446
:1001100055004C990BC05F9A89E191E00E945C0008
:100120008DE00E945500EBCF5E98F3CF5F98E7CF4C
:04013000F894FFCF71
:100134004C65667420627574746F6E2069732070E8
:10014400726573736564210A000909095269676855
:100154007420627574746F6E206973207072657395
:06016400736564210A002E
:00000001FF
