:100000000C9434000C943E000C943E000C943E0082
:100010000C943E000C943E000C943E000C943E0068
:100020000C943E000C943E000C943E000C943E0058
:100030000C943E000C943E000C943E000C943E0048
:100040000C943E000C943E000C943E000C943E0038
:100050000C943E000C943E000C943E000C943E0028
:100060000C943E000C943E0011241FBECFEFD8E04C
:10007000DEBFCDBF0E9440000C9463000C940000D2
:1000800088E08093C10086E08093C20087E6809379
:10009000C4009DE48091C00085FFFCCF9093C60012
:1000A000F9CF88E08093C10086E08093C20087E6A4
:1000B0008093C4000895982F8091C00085FFFCCFE5
:0A00C0009093C6000895F894FFCF56
:00000001FF
