:100000000C9434000C943E000C943E000C943E0082
:100010000C943E000C943E000C943E000C943E0068
:100020000C943E000C943E000C943E000C943E0058
:100030000C943E000C943E000C943E000C943E0048
:100040000C943E000C943E000C943E000C943E0038
:100050000C943E000C943E000C943E000C943E0028
:100060000C943E000C943E0011241FBECFEFD8E04C
:10007000DEBFCDBF0E9451000C9472000C940000B2
:1000800088E08093C10086E08093C20087E6809379
:10009000C40008959091C00095FFFCCF8093C600E6
:1000A000089580E284B90E944000C0E287E50E9482
:1000B0004A008FE60E944A0087E50E944A008AE0D3
:1000C0000E944A008DE00E944A0085B18C2785B9C4
:1000D0002FEF87EA91E6215080409040E1F700C081
:0800E0000000E4CFF894FFCF0B
:00000001FF
