:100000000C9434000C943E000C943E000C943E0082
:100010000C943E000C943E000C943E000C943E0068
:100020000C943E000C943E000C943E000C943E0058
:100030000C943E000C943E000C943E000C943E0048
:100040000C943E000C943E000C943E000C943E0038
:100050000C943E000C943E000C943E000C943E0028
:100060000C943E000C943E0011241FBECFEFD8E04C
:10007000DEBFCDBF0E9440000C9459000C940000DC
:100080008FEF8AB990EF8FE09BB92FEF34E34CE00C
:10009000215030404040E1F700C000008BB92FEF05
:1000A00034E34CE0215030404040E1F700C0000014
:0600B000EBCFF894FFCF36
:00000001FF
