:100000000C9434000C943E000C943E000C943E0082
:100010000C943E000C943E000C943E000C943E0068
:100020000C943E000C943E000C943E000C943E0058
:100030000C943E000C943E000C943E000C943E0048
:100040000C943E000C943E000C943E000C943E0038
:100050000C943E000C943E000C943E000C943E0028
:100060000C943E000C943E0011241FBECFEFD8E04C
:10007000DEBFCDBF0E9440000C9474000C940000C1
:100080008EE084B982E085B92A982B982FEF37EA61
:1000900091E6215030409040E1F700C000002998DF
:1000A0002A9A2B982FEF37EA91E621503040904062
:1000B000E1F700C0000029982A982B9A2FEF37EA21
:1000C00091E6215030409040E1F700C00000299AAD
:1000D0002A982B9A2FEF37EA91E621503040904032
:0C00E000E1F700C00000CFCFF894FFCF84
:00000001FF
